:020000040800F2
:1000000038080020E5010008DD0C0008710A00082E
:100010000D0B00089D080008892100080000000061
:10002000000000000000000000000000D1100008E7
:10003000C508000800000000B90D00087112000892
:10004000FF010008FF010008FF010008FF01000890
:10005000FF010008FF010008FF010008FF01000880
:10006000FF010008FF010008FF010008FF01000870
:10007000FF010008FF010008FF010008FF01000860
:10008000FF010008FF010008FF010008FF01000850
:10009000FF010008FF010008FF010008FF01000840
:1000A000FF010008FF010008FF010008FF01000830
:1000B000FF010008FF010008FF010008FF01000820
:1000C000FF010008FF010008FF010008FF01000810
:1000D000FF010008191C0008E11C0008B11D000800
:1000E000FF010008FF010008FF010008FF010008F0
:1000F000FF010008FF010008FF010008FF010008E0
:10010000FF010008FF010008FF010008FF010008CF
:10011000151C0008FF010008FF010008FF0100088E
:10012000FF010008FF010008FF010008FF010008AF
:1001300000F002F800F046F80AA090E8000C8244B3
:100140008344AAF10107DA4501D100F03BF8AFF290
:10015000090EBAE80F0013F0010F18BFFB1A43F0A5
:10016000010318474837000068370000103A24BFE1
:1001700078C878C1FAD8520724BF30C830C144BF0C
:1001800004680C607047000000230024002500264E
:10019000103A28BF78C1FBD8520728BF30C148BFEA
:1001A0000B607047642900F0F780632900F0C1827A
:1001B000002070471FB59DE8030000F003FA1FBD43
:1001C00010B510BD00F0E8FA1146FFF7F3FF02F09A
:1001D00023F800F006FB03B4FFF7F2FF03BC00F0C6
:1001E00037FB00000948804709480047FEE7FEE763
:1001F000FEE7FEE7FEE7FEE7FEE7FEE7FEE7FEE7D7
:1002000004480549054A064B70470000951200084E
:10021000310100083802002038080020380400208E
:100220003804002070B5064600F0B0F9056806F104
:100230000B0020F00704B4429CBF002070BD2B4689
:100240006A68BAB11068A04210D304F1080188426C
:100250003CBF5068586007D351681019416011685D
:10026000091B016058601460101D70BD1346526870
:10027000002AE7D12146284600F090F90028DED177
:1002800070BD70B50446051F00F080F90068002CB1
:1002900014BF446870BD002C18BFAC423CBF204660
:1002A0006468F8D301680A18AA4218BF456003D1F0
:1002B0002A6805461144016028684119A1421CBF03
:1002C0006C6070BD6168696021680844286070BD19
:1002D0000FB41CB5074B06AA7B44694600900598ED
:1002E00000F005FA0020694600F014FA1CBC5DF825
:1002F00014FB00003904000070B5044685690068ED
:10030000C10601D5302600E02026C00707D070BD09
:10031000D4E9012130469047206A401C20626D1EBE
:10032000F6D570BD70B5044685690078C00707D161
:1003300070BDD4E9012120209047206A401C206232
:100340006D1EF6D570BD70B50C460546012A05D068
:100350002878800600D5EA69002302E0012305E041
:100360005B1C934202D2E05C0028F9D1A869E61830
:10037000C01AA861286A184428622846FFF7BCFF03
:1003800004E0D5E9012114F8010B9047B442F8D3F9
:100390002846FFF7C7FF70BD2DE9F041064600244F
:1003A00010687529314616A510D0AFF300800028DB
:1003B00002DA404213A507E031688A0701D512A589
:1003C00002E0490704D511A5012401E0AFF3008044
:1003D00000210A2206F1240709E0B0FBF2FCB0FB81
:1003E000F2F302FB1C00303078541846491C0028F8
:1003F000F3D123462A463046BDE8F04100F018B953
:10040000000000002D0000002B0000002000000074
:100410002DE9F05F894604464FF0000ADFF824B169
:10042000FB44C0F820A02046E168884700287DD022
:10043000252806D0D4E901219047206A401C20627B
:10044000F1E700255F462046E168884720280646F8
:1004500007DB312E05D2B81910F8200C08B105437E
:10046000F1E7A80701D525F00405C4F81CA0002772
:10047000C4F818A02A2E09D0304601F087FE38B300
:1004800004EB8708303EC8F8186019E059F8041BDF
:10049000204604EB87029161E1688847012F0646F8
:1004A00018D1E069002820DA25F020051DE0D8F8F1
:1004B000180000EB800006EB40003038C8F8180048
:1004C0002046E1688847064601F060FE0028EED12C
:1004D000012F0AD02E2E08D12046E16888477F1CC4
:1004E0000646022F45F02005C4DBA069002803DA88
:1004F000404245F00105A061E80701D025F0100554
:10050000A6B1A6F14100192802D8203645F40065AD
:100510004A463146204625604D46FFF743FE60B10E
:10052000012807D0ED1D25F0070000E007E000F1ED
:10053000080978E705F1040975E730467AE7206A8B
:10054000BDE8F09F7434000010B5431C02E010F8C1
:10055000011B71B18107FAD14FF0013202C88C1A28
:100560008C4314EAC211F9D0C01A0A0603D0C01E87
:1005700010BDC01A10BD0A0401D0801E10BD0902B2
:10058000FCD0401E10BD7047704770470048704750
:10059000DC010020704770477047704738B504464B
:1005A0000A4600206946AFF30080002808BF38BD26
:1005B00002460099204600F0CDF8012038BD012008
:1005C00000F0E2B8F8B5AFF30080054600200C4615
:1005D000102000BF0646A819A0420DD93246694630
:1005E0000020AFF30080070008BF00F0CDF80098AE
:1005F000A04218BF0546C419FFF7C8FF05600746AB
:10060000F01D20F007004619284600F00AF8B44211
:1006100008BFF8BDA21B31463868BDE8F84000F0BD
:1006200099B800210160C0E901107047102070479F
:100630002DE9F0470D4699469246044600F12408FC
:100640000168880604D5E06921F01001216000E00E
:100650000120A84201DD471B00E00027A1697A19AB
:1006600002EB0900081AA0612078C00602D42046D7
:10067000FFF742FE002608E0D4E901211AF806003F
:100680009047206A401C761C20624E45F4DB20789F
:10069000C0060AD52046FFF72FFE06E0D4E9012167
:1006A00030209047206A401C2062381EA7F10107C5
:1006B000F4DC07E0D4E9012118F805009047206A2E
:1006C000401C2062281EA5F10105F3DC2046FFF73F
:1006D00029FE2078000602D50220BDE8F08701201F
:1006E000FBE7000001694A1C02610878704700B509
:1006F0008FB0CDE901310021059105497944CDE95B
:10070000031011466846FFF783FE0FB000BD0000DE
:10071000E5FFFFFF0A6802F8010B0A60704710B599
:10072000436913B1AFF3008001E0FFF70CFE012035
:1007300010BD127800F124010A7000224A700122D3
:10074000EDE711684FF0FF32E9E70000004870471D
:10075000D4010020034640688C46002818BF884218
:100760003CBF03464068F8D318681844884207D055
:100770000CF1030020F00700001D411A521A014637
:10078000081D0A60FFF77DBD10B500F039F8BDE81F
:10079000104000F02FB870477546FFF7D7FFAE4600
:1007A00005006946534620F00700854618B020B57D
:1007B000FFF726FDBDE820404FF000064FF0000790
:1007C0004FF000084FF0000B21F00701AC46ACE8F9
:1007D000C009ACE8C009ACE8C009ACE8C0098D4666
:1007E000704710B50446AFF300802046BDE81040C6
:1007F000FFF7F1BC002801D000F02AB870470000D4
:1008000010B5012805D0002103A000F027F8012031
:1008100010BD09A1F8E7000053494752544D454D1A
:100820003A204F7574206F662068656170206D6591
:100830006D6F7279000000003A2048656170206D8C
:10084000656D6F727920636F727275707465640084
:1008500001491820ABBEFEE72600020070B5054630
:100860000C460A2000E06D1C00F011F835B1287824
:100870000028F8D102E0641C00F009F814B12078D7
:100880000028F8D1BDE870400A20AFF3008008B519
:1008900069468DF800000320ABBE08BD00BFFEE72F
:1008A00010B5044694F8640001280AD1207856282F
:1008B00003D1204601F002FD00BF00BF002084F8F4
:1008C000640010BD70472DE9F04102460025002666
:1008D000002000230024002791F803C00CF00F052E
:1008E00091F803C00CF0100CBCF1000F03D091F88C
:1008F00002C04CEA050591F800C0BCF1000F31D0F0
:10090000146800202BE04FF0010C0CFA00F3B1F852
:1009100000C00CEA03069E4220D183004FF00F0C6A
:100920000CFA03F7BC4305FA03FC4CEA040491F803
:1009300003C0BCF1280F06D14FF0010C0CFA00FCEB
:10094000C2F814C00AE091F803C0BCF1480F05D109
:100950004FF0010C0CFA00FCC2F810C0401C082833
:10096000D1D31460B1F800C0BCF1FF0F34DD54687E
:1009700000202EE000F1080C4FF0010808FA0CF3FB
:10098000B1F800C00CEA03069E4221D183004FF06B
:100990000F0C0CFA03F7BC4305FA03FC4CEA040401
:1009A00091F803C0BCF1280F05D100F1080C08FA3A
:1009B0000CF8C2F8148091F803C0BCF1480F07D1BD
:1009C00000F1080C4FF0010808FA0CF8C2F810808A
:1009D000401C0828CED35460BDE8F081F0B50A462B
:1009E000002300240021002500F00046B6F1004F4E
:1009F00002D11D4EF16901E01B4E7168C0F3034541
:100A000083B200F44016B6F5401F08D121F07061A2
:100A1000154E766826F07066134F7E6012E000F483
:100A20008016B6F5801F06D1032606FA05F4A14309
:100A300041F0706106E0460D360103FA06F6B14357
:100A400041F0706122B1460D360103FA06F63143DA
:100A500000F00046B6F1004F02D1034EF16101E013
:100A6000014E7160F0BD000000000140016170475F
:100A700000BFFEE770B5044600F006FC0E490968A9
:100A8000401AA04203D900F0FFFB0B49086025463D
:100A900000F0FAFB08490968401A05EBD571B0EB84
:100AA000610F03D920200549086003E02020034995
:100AB000091D086070BD000008000020100C0140F6
:100AC00008B50121482000F099F910208DF80300A5
:100AD0002020ADF8000003208DF802006946094887
:100AE000FFF7F1FE20210748FFF7C0FF2020ADF8F7
:100AF000000069460448FFF7E6FE20210248FFF7A0
:100B0000B5FF08BD000C01400018014000BFFEE722
:100B10002DE9F84F0024C0E004EB8400694901EBA3
:100B20008000806804EB8401664A02EB8101C860A2
:100B300004EB8400114651F8200004EB840102EB21
:100B400081018860604A52F82410604A52F82400FB
:100B500002F026FE04EB84015A4A42F8210004EB1D
:100B60008402584B53F8221004EB840203EB8202F8
:100B7000506802F021FB04EB8401524A02EB810130
:100B8000486004EB840152F82100514902F0CCFC8A
:100B900001D2012000E00020824602F0ADFC804638
:100BA00004EB8400474A02EB800081684FF08040EC
:100BB00002F0EEFC009004EB8400424A52F8201050
:100BC000009802F0E2FD834604EB84003D4A02EB0C
:100BD0008000C168584602F0EFFA82463D488168BD
:100BE000504602F0D5FC8146414602F0D1FC064653
:100BF00004EB8402334B03EB82025168354A5068A0
:100C000002F0C6FC804604EB84022E4B53F82210FF
:100C1000304A106802F0BCFC8146414602F0CCFA32
:100C20000746314602F0C8FA054602F029FC04EBFB
:100C30008401244A02EB8101086104EB840011461F
:100C400001EB80000069B0F57A7F02DB40F2E7300B
:100C500005E004EB84001B4901EB8000006904EB14
:100C60008401184A02EB8101086104EB84001146FB
:100C700001EB8000006910F57A7F01DC164805E081
:100C800004EB84000F4901EB8000006904EB840150
:100C90000C4A02EB81010861641C042CFFF63CAF96
:100CA000084CB4F84C4023B2064C248F22B2054CB9
:100CB000A48C21B2034C248A20B201F0C3FCBDE80D
:100CC000F88F00005000002040000020300000207D
:100CD0000000C8428C38000819FCFFFF7047000074
:100CE00070B5002100230F22C47804B3154C24688A
:100CF00004F4E064C4F5E064210AC1F10403CA40CD
:100D0000447804FA03F184781440214309010E4C1D
:100D10000678A155047804F01F050124AC4005783D
:100D20006D11AD0005F1E025C5F8004109E004783A
:100D300004F01F050124AC40044D0678761145F8F7
:100D4000264070BD0CED00E000E400E080E100E032
:100D500002490143024A1160704700000000FA0591
:100D60000CED00E010B5002807DA0A07140E054A5A
:100D700000F00F031B1FD45403E00A07130E024AAE
:100D8000135410BD18ED00E000E400E010B5094870
:100D90000068401C0749086008460068642807D3BB
:100DA0000020086001F034FD01F038FBFFF7B0FED1
:100DB00010BD0000040000207047000029B1064A61
:100DC000D2690243044BDA6104E0034AD2698243E8
:100DD000014BDA61704700000010024029B1064A59
:100DE00012690243044B1A6104E0034A1269824308
:100DF000014B1A61704700000010024029B1064AF9
:100E000092690243044B9A6104E0034A9269824367
:100E1000014B9A61704700000010024029B1064A58
:100E2000D2680243044BDA6004E0034AD26882438A
:100E3000014BDA60704700000010024030B500211D
:100E40000022002400232D4D6D6805F00C0121B116
:100E5000042905D0082923D105E0294D056022E0A9
:100E6000274D05601FE0254D6D6805F47012234D78
:100E70006D6805F48034022505EB92421CB9214DC2
:100E8000554305600BE01D4D6D6805F400351DB13F
:100E90001C4D5543056002E0194D5543056002E0C5
:100EA000174D056000BF00BF144D6D6805F0F001DF
:100EB0000909154D6B5C0568DD4045600F4D6D6897
:100EC00005F4E061090A104D6B5C4568DD40856002
:100ED0000A4D6D6805F46051C90A0B4D6B5C45689D
:100EE000DD40C560054D6D6805F44041890B074D37
:100EF0006B5CC568B5FBF3F5056130BD00100240C1
:100F000000127A0000093D001C0000202C00002087
:100F100010B5044694F86400012817D120784D28B4
:100F200004D0522806D056280CD107E0204601F004
:100F300043FB07E0204600F00BF803E0204601F0F9
:100F400061FA00BF00BF002084F8640010BD0000FB
:100F50002DE9F04F8FB00446A17830396422514317
:100F6000E278303A02EB820201EB42022179303919
:100F7000501802F0C1FA06466078412801D1304687
:100F800001E086F000400646617AA1F1300001F0F0
:100F9000E7FE0746444A454B01F0FAFECDE9080159
:100FA000217AA1F1300001F0DBFE0746404A414BB7
:100FB00001F0EEFECDE90401E179A1F1300001F08C
:100FC000CFFE07463C4A3D4B01F0E2FE82468B468F
:100FD000A179A1F1300001F0C3FE52465B46CDE994
:100FE000000101F0BDFCCDE90201DDE9042301F0BF
:100FF000B7FCCDE90601DDE9082301F0B1FCCDE93C
:101000000A0101F07BFC05466079412801D12846A0
:1010100001E085F000400546284602F0A1F8284A84
:10102000284BCDE90A0101F0B3FE0746264A274BBB
:1010300001F03EFD824601F061FC814649463046A2
:1010400002F0BAF8074602F01BFA00B2ADF8300021
:101050004946304602F0B0F8074602F011FA00B2F5
:10106000ADF832004946304602F09AFB074602F0DE
:1010700007FA00B2ADF834004946304602F090FB62
:10108000074602F0FDF900B2ADF83600BDF9343084
:10109000BDF93620BDF93010BDF9320000F0A0F8DE
:1010A0000FB0BDE8F08F0000FCA9F1D24D62503FB7
:1010B0007B14AE47E17A843F9A9999999999B93FFF
:1010C0002DB29DEFA77A6740E4ED826D3689EC3F43
:1010D000704710B50446204600F08CFD10BD70B579
:1010E00005460E46002404E0285DFFF7F2FF601C71
:1010F000C4B2B442F8DB70BD10B500F001F810BD09
:101100000CB50020019000903348006840F4803016
:101110003149086000BF3048006800F4003000909A
:101120000198401C0190009818B90198B0F5A06F83
:10113000F1D12948006800F4003010B1012000907E
:1011400001E0002000900098012843D12348006866
:1011500040F01000214908600846006820F00300B4
:1011600008600846006840F0020008601A484068BD
:10117000194948600846406848600846406840F49D
:10118000806048600846406820F47C10486008464B
:10119000406840F4E81048600846006840F08070FD
:1011A000086000BF0C48006800F000700028F9D00B
:1011B0000948406820F00300074948600846406835
:1011C00040F00200486000BF0348406800F00C0097
:1011D0000828F9D10CBD0000001002400020024098
:1011E0002DE9F04107460C4615461E46384602F0EA
:1011F00083F909490860204602F07EF906494860F3
:10120000284602F079F904498860304602F074F902
:101210000149C860BDE8F0813000002030B599B0C8
:1012200005462846FFF790F984B2FD208DF80000AE
:10123000A01C000A8DF80100A01CC0B28DF80200AD
:1012400061208DF8030001208DF80400002004E0E7
:101250002A5C411D0DF80120401CA042F8DB601DF6
:10126000C1B26846FFF73BFF19B030BD70470000C0
:1012700010B501F013F803480068401C01490860EC
:1012800010BD00000C0000200148006870470000FD
:101290000C00002010B51348006840F0010011490F
:1012A000086008464068104908400E4948600846F2
:1012B00000680E4908400B4908600846006820F4A1
:1012C000802008600846406820F4FE0048604FF423
:1012D0001F008860FFF710FF4FF0006004490860AE
:1012E00010BD0000001002400000FFF8FFFFF6FEF6
:1012F00008ED00E010B5104CB4F1807F01D301205F
:1013000011E024F07F40401E4FF0E02148610F21A2
:101310004FF0FF30FFF726FD00204FF0E0218861FD
:1013200007200861002008B100BFFEE70021481E29
:10133000FFF718FD10BD000040190100F0B50C4684
:10134000154600220021068C4FF6FE773E400684AB
:10135000028B018C4FF60C7632407E1C06EA031697
:101360002E433243104EB0420ED0104EB0420BD03E
:10137000B0F1804F08D00E4EB04205D00D4EB042B5
:1013800002D00D4EB04206D14FF6FD76314044F00A
:101390000106314305E04FF6F576314044F0010691
:1013A000314302830184F0BD002C01400034014030
:1013B0000004004000080040000C0040F0B50C465E
:1013C0001546002200210026078C4FF6EF7C07EA25
:1013D0000C070784028B018C4FF6FF7707EA04168F
:1013E00040F6FF473A404FF6FF7707EA03373A43A4
:1013F0004FF6FF7707EA05273A43114FB8420ED060
:10140000104FB8420BD0B0F1804F08D00E4FB84209
:1014100005D00E4FB84202D00D4FB84206D14FF65C
:10142000DF77394046F01007394305E04FF65F7724
:10143000394044F01007394302830184F0BD0000B5
:10144000002C01400034014000040040000800402E
:10145000000C0040F0B50C46154600220021002685
:10146000078C4FF6FF6C07EA0C070784828B018C10
:101470004FF6FF7707EA04264FF60C773A404FF60F
:10148000FF7707EA03172F433A43114FB8420ED0B4
:10149000104FB8420BD0B0F1804F08D00E4FB84279
:1014A00005D00E4FB84202D00D4FB84206D14FF6CC
:1014B000FF57394046F48077394305E04FF2FF5734
:1014C000394044F48077394382830184F0BD0000C1
:1014D000002C01400034014000040040000800409E
:1014E000000C0040F0B50C461546002200210026F5
:1014F000078C4EF6FF7C07EA0C070784828B018C71
:101500004FF6FF7707EA043640F6FF473A404FF6BA
:10151000FF7707EA05273A434FF6FF7707EA0337D5
:101520003A43114FB8420ED0104FB8420BD0B0F131
:10153000804F08D00E4FB84205D00E4FB84202D0AF
:101540000D4FB84206D14DF6FF77394046F480572B
:10155000394305E047F6FF57394044F48057394393
:1015600082830184F0BD0000002C01400034014062
:101570000004004000080040000C004030B587B077
:1015800005460C460121C802FFF738FC0121412025
:10159000FFF734FC01211E48FFF720FA04208DF8E4
:1015A00003004FF42060ADF8000069461948FFF7CA
:1015B0008AF9194800F01EF904A800F011FBA8B23E
:1015C000ADF81000A0B2ADF814000020ADF8160080
:1015D000ADF8120004A9104800F0B0FA02231A4630
:1015E00003210D4800F0FAF901A800F06FFA062077
:1015F000ADF80C0001A9084800F012FA00210648D5
:1016000000F06DFA0121044800F0E8F807B030BDA1
:10161000C000160000180140002C014030B587B012
:1016200005460C4601210846FFF7C8FB01210520AD
:10163000FFF7E4FB04208DF803000320ADF8000061
:1016400069461B48FFF73FF94FF0804000F0D2F8A1
:1016500004A800F0C5FAA8B2ADF81000A0B2ADF829
:1016600014000020ADF81600ADF8120004A94FF0E8
:10167000804000F063FA02231A460321580700F065
:10168000ADF901A800F022FA0620ADF80C0001A97E
:101690004FF0804000F0C4F900214FF0804000F08E
:1016A0001EFA0121880700F099F807B030BD00004C
:1016B0000008014030B587B005460C4601210220E4
:1016C000FFF77CFB01210520FFF798FB04208DF834
:1016D0000300C020ADF8000069461948FFF7F3F891
:1016E000184800F087F804A800F07AFAA8B2ADF81C
:1016F0001000A0B2ADF814000020ADF81600ADF84F
:10170000120004A90F4800F019FA02231A46032117
:101710000C4800F063F901A800F0D8F90620ADF8F4
:101720000C0001A9074800F07BF90021054800F0F2
:10173000D6F90121034800F051F807B030BD000090
:10174000000801400004004030B587B005460C4653
:1017500001210420FFF732FB01210920FFF74EFB96
:1017600004208DF80300C020ADF800006946194838
:10177000FFF7A9F8184800F03DF804A800F030FA87
:10178000A8B2ADF81000A0B2ADF814000020ADF87A
:101790001600ADF8120004A90F4800F0CFF902239B
:1017A0001A4603210C4800F019F901A800F08EF93F
:1017B0000620ADF80C0001A9074800F031F900211E
:1017C000054800F08CF90121034800F007F807B044
:1017D00030BD0000000C01400008004021B102882B
:1017E00042F00102028004E002884FF6FE731A40C4
:1017F0000280704710B504466848844208D1012130
:10180000C014FFF70BFB0021E014FFF707FBC4E057
:10181000B4F1804F08D101210846FFF7DFFA00211B
:101820000120FFF7DBFAB8E05D48844208D10121CE
:101830000220FFF7D3FA00210220FFF7CFFAACE035
:101840005848844208D101210420FFF7C7FA00213B
:101850000420FFF7C3FAA0E05348844208D10121D5
:101860000820FFF7BBFA00210820FFF7B7FA94E041
:101870004E48844208D101211020FFF7AFFA002121
:101880001020FFF7ABFA88E04948844208D10121D3
:101890002020FFF7A3FA00212020FFF79FFA7CE029
:1018A0004448844208D101214014FFF7B7FA0021CF
:1018B0006014FFF7B3FA70E03F48844209D1012178
:1018C000C804FFF7ABFA00214FF40020FFF7A6FA97
:1018D00063E03A48844209D101210805FFF79EFAE6
:1018E00000214FF48010FFF799FA56E03448844203
:1018F00009D101214805FFF791FA00214FF40010AA
:10190000FFF78CFA49E02F48844208D1012140209A
:10191000FFF764FA00214020FFF760FA3DE02A4813
:10192000844208D101218020FFF758FA002180204D
:10193000FFF754FA31E02548844208D1012180158F
:10194000FFF74CFA0021A015FFF748FA25E02048E0
:10195000844209D101210804FFF760FA00214FF405
:101960008030FFF75BFA18E01A48844209D1012160
:101970004804FFF753FA00214FF40030FFF74EFA06
:101980000BE01548844208D101218804FFF746FA8C
:1019900000214FF48020FFF741FA10BD002C0140D8
:1019A0000004004000080040000C0040001000400F
:1019B0000014004000340140004C01400050014040
:1019C0000054014000180040001C0040002000406E
:1019D000004001400044014000480140F0B50C4681
:1019E00015461E460021002200230189028B038C2C
:1019F0004FF6F877394021434FF6FC473A4040F222
:101A000001173A434FF6DD773B404FF6FF7707EA81
:101A100006172F433B43018102830384F0BD00007E
:101A200070B505460C46244885420ED023488542B1
:101A30000BD0B5F1804F08D02148854205D0214810
:101A4000854202D02048854200D100E000BF2088B6
:101A500050B92389A28861882846FFF76FFCE18886
:101A6000284600F03EF825E0208804280AD1238982
:101A7000A28861882846FFF7A1FCE188284600F08B
:101A800039F817E0208808280AD12389A2886188BC
:101A90002846FFF7DFFCE188284600F038F809E027
:101AA0002389A28861882846FFF71CFDE188284623
:101AB00000F036F870BD0000002C014000340140F9
:101AC0000004004000080040000C0040002101809C
:101AD0004180012181800021C18001817047818482
:101AE0007047028B4FF6F3731A400283028B0A434E
:101AF00002837047028B4FF2FF331A400283028B3E
:101B00004FF6FF7303EA01231A4302837047828B67
:101B10004FF6F3731A408283828B0A4382837047A5
:101B2000828B4FF2FF331A408283828B4FF6FF7312
:101B300003EA01231A4382837047000000220288CF
:101B40001D4B98420ED01D4B98420BD0B0F1804FE8
:101B500008D01B4B984205D01A4B984202D01A4B22
:101B6000984204D14FF68F731A404B881A43174B93
:101B7000984207D0164B984204D04FF6FF431A40C4
:101B8000CB881A4302808B8883850B8803850A4B98
:101B900098420BD0094B984208D00E4B984205D082
:101BA0000D4B984202D00D4B984201D10B7A03861F
:101BB0000123838270470000002C01400034014063
:101BC0000004004000080040000C004000100040ED
:101BD0000014004000400140004401400048014022
:101BE0004FF6FF71818000210180C1804180017228
:101BF0007047000010B5044600BF4021044800F0C3
:101C00009EF90128F9D1A1B2014800F0A5FA10BD52
:101C1000004C00407047000010B50748008800F0F5
:101C2000200040B10448001D0088C4B2024920468B
:101C3000024A1268904710BD003801401800002089
:101C400010B586B00446012144F20400FFF7D6F82F
:101C50004FF40070ADF8140003208DF81600182022
:101C60008DF8170005A91C48FEF72DFE4FF4806083
:101C7000ADF8140004208DF8170005A91648FEF7EA
:101C800022FE25208DF8000003208DF801008DF83C
:101C9000020001208DF803006846FFF721F8019447
:101CA0000020ADF80800ADF80A00ADF80C00ADF862
:101CB00010000C20ADF80E0001A9084800F072F9E0
:101CC000012240F22551054800F046F90121034860
:101CD00000F029F906B010BD0008014000380140AD
:101CE00010B50748008800F0200040B10448001DEE
:101CF0000088C4B202492046024A1268904710BDCB
:101D0000004400401800002010B586B004460121B0
:101D10000520FFF773F801212248FFF74FF808204C
:101D2000ADF8140048208DF8170005A91E48FEF7ED
:101D3000CAFD0420ADF8140003208DF81600182009
:101D40008DF8170005A91848FEF7BDFD26208DF86F
:101D5000100003208DF811008DF8120001208DF87D
:101D6000130004A8FEF7BCFF00940020ADF80400A7
:101D7000ADF80600ADF80800ADF80C000C20ADF889
:101D80000A006946094800F00DF9012240F2255188
:101D9000064800F0E1F80121044800F0C4F806B05C
:101DA00010BD000001000200000801400044004096
:101DB00010B50748008800F0200040B10448001D1D
:101DC0000088C4B202492046024A1268904710BDFA
:101DD000004800401800002010B586B004460121DC
:101DE0000820FFF70BF801218804FEF7E7FF4FF406
:101DF0000060ADF8000004208DF8030069461E481D
:101E0000FEF761FD4FF48060ADF8000003208DF80F
:101E1000020018208DF8030069461748FEF753FDAD
:101E200002940020ADF80C00ADF80E00ADF81000E3
:101E3000ADF814000C20ADF8120002A90F4800F014
:101E4000B1F8012240F225510C4800F085F801213B
:101E50000A4800F068F827208DF8040003208DF868
:101E600005008DF8060001208DF8070001A8FEF797
:101E700037FF06B010BD0000000C014000480040D4
:101E800010B586B0044601211020FEF7B7FF0121EE
:101E90000846FEF7B3FF0121C804FEF78FFF4FF499
:101EA0008060ADF8140018208DF8170003208DF81D
:101EB000160005A91548FEF706FD4FF40060ADF8C1
:101EC000140048208DF8170003208DF8160005A98E
:101ED0000E48FEF7F8FC01940020ADF80800ADF8BC
:101EE0000A00ADF80C00ADF810000C20ADF80E00A3
:101EF00001A9074800F056F80121054800F013F841
:101F00004021034800F006F806B010BD0010014063
:101F1000004C004001F40072B2F5007F00D100BF18
:101F2000CA430280704721B1828942F40052828103
:101F300004E082894DF6FF731A40828170470246A1
:101F40000020B1F5007F00D100BF13880B400BB11A
:101F5000012000E000207047F0B503460024002671
:101F60000025002040F66A17B94200D100BF18468C
:101F7000C1F3421401F01F06012707FA06F5012CF0
:101F800001D10C3004E0022C01D1103000E01430FB
:101F90001AB107682F43076002E00768AF43076084
:101FA000F0BD00002DE9F04786B005460E4600243E
:101FB000A24600BFA1460027B08900B100BF2F464E
:101FC0002C8A4CF6FF700440F08804432C82AC89C4
:101FD0004EF6F3100440B0883189084371890843F4
:101FE0000443AC81AC8A4FF6FF400440B0890443FF
:101FF000AC8201A8FEF722FF1F48874202D1DDF81C
:1020000010A001E0DDF80CA0A88900F4004040B168
:102010000AEBCA0000EB0A1031684900B0FBF1F886
:1020200007E00AEBCA0000EB0A1031688900B0FB38
:10203000F1F86420B8FBF0F004012009642101FBF1
:102040001089A88900F4004040B1322000EBC9009B
:10205000B0FBF1F000F00700044308E0322000EB91
:1020600009106421B0FBF1F000F00F0004432C8153
:1020700006B0BDE8F0870000003801400149086063
:10208000704700001800002030B5024600202E4B9B
:10209000994200D108E02D4B994201D1012003E083
:1020A0002B4B994200D1022000EB001303EB4303BA
:1020B000284C04EB430393F86430E3BB3C2A0AD179
:1020C000002300EB001404EB4404224D05EB440410
:1020D00084F8653037E03E2A0AD1012300EB001472
:1020E00004EB44041B4D05EB440484F864302AE0FF
:1020F00000EB001303EB4303164C04EB430300EB2C
:10210000001404EB4404134D05EB440494F86540BB
:102110001A5500EB001303EB43032C4604EB430377
:1021200093F865305B1C642493FBF4F504FB1533D2
:1021300000EB001400E006E004EB4404054D05EB61
:10214000440484F8653030BD00380140004400404C
:1021500000480040A0000020C1F3080282807047C0
:1021600070B505460C460BE000BF40212846FFF73E
:10217000E6FE0128F9D114F8011B2846FFF7ECFF11
:1021800020780028F0D170BD00BFFEE730380A2863
:1021900001D20120704700207047000010B50648AA
:1021A000FEF7B6FE0448CC38FEF7B2FE02486638A9
:1021B000FEF776FB10BD00006C01002010B5024850
:1021C000FFF75CFF10BD00008920000870B50546D0
:1021D0000A48006810B9094805600EE0074E00E0A3
:1021E000766870680028FBD10820FEF71BF80446CB
:1021F000256000206060746000BF70BD100000208A
:1022000000B50146FFF740F8024600BFFFF73CF873
:10221000801A8842FAD300BD4FF4A060FEF798FD03
:10222000FFF768F8FEF74CFC4FF6FF710020FFF750
:10223000A5F94FF6FF710020FFF7F0F94FF6FF7197
:102240000020FFF737FA4FF6FF710020FFF77CFA06
:102250004FF4E130FFF7F4FC4FF4E130FFF754FDA9
:102260004FF4E130FFF7B8FD4FF4E130FFF708FE1F
:102270000848FFF7ABFFFFF7A1FF00F0B1FA07E056
:10228000FFF78CFF04480088FEF7F4FBFEF7EEFF33
:10229000F6E700008D0D00080000002010B5064C88
:1022A00005E020688047606800B910BD6468206858
:1022B0000028F6D100BFF8E7100000202DE9F04F0C
:1022C00095B082469AF80410A1F1300000F048FD64
:1022D0000446424A424B00F05BFDCDE902019AF808
:1022E0000310A1F1300000F03BFD80463D4A3E4B1B
:1022F00000F04EFD04460D469AF8021030399AF867
:102300000120303A02EB820201EB420000F028FD8E
:10231000064622462B4600F023FBCDE90001DDE90D
:10232000022300F01DFBCDE9040100F0E7FA83462B
:102330009AF80810A1F1300000F012FD0446274A77
:10234000274B00F025FDCDE902019AF80710A1F115
:10235000300000F005FD0646224A234B00F018FD30
:10236000CDE900019AF8061030399AF80520303A84
:1023700002EB820201EB420000F0F2FC0446DDE9D0
:10238000002300F0EDFA8046DDE9022300F0E8FAD0
:10239000CDE9040100F0B2FA06909AF808109AF814
:1023A00007009AF806209AF80530CDE90232CDE907
:1023B00004019AF804009AF80310CDE900109AF885
:1023C00002309AF8012009A107A8FDF781FF07A9AB
:1023D0000B48FFF7C5FE15B0BDE8F08F7B14AE4784
:1023E000E17A843F9A9999999999B93F3C56256326
:1023F00025632563256325632563256325633E00E7
:102400000048004010B5044602A10348FFF7A8FEAB
:1024100010BD00003C563E00004400402DE9F04F46
:10242000ADF50B7D574AD168506800F0C5FE4FF0FE
:1024300080410B9000F02EFF8046524A9168106850
:1024400000F0BAFE4FF080410B9000F023FF83466E
:10245000414600F0B1FE07464FF0804100F01AFF00
:102460000446484AD168506801F09AF94FF080411B
:10247000019000F00FFF834600F072FE0746424ACB
:10248000424B00F085FC424A424BCDE9020100F08C
:102490000FFB3C4ACDE906019168106801F080F914
:1024A0004FF08041019000F0F5FE834600F058FEA9
:1024B0000746354A354B00F06BFC354A354BCDE9C4
:1024C000020100F0F5FACDE90401DDE9062300F090
:1024D00047FA00224FF08043CDE9080100F0E8FA06
:1024E000CDE90A0100F00AFA05460021204601F074
:1024F0001BF901D8412000E042200C900021284621
:1025000001F012F901D8412000E04220824600216A
:10251000204601F009F901D8204601E084F000408E
:1025200004460021284601F0FFF801D8284601E0C2
:1025300085F000400546204600F0BEFF86B21649F1
:10254000284601F025F8074600F0B6FF1FFA80F98B
:102550003346CDE900A911A10DA80C9AFDF7B8FEEC
:1025600008490868002100F057FF03D00DA9104862
:10257000FFF7F6FD0DA90F48FFF7F2FD0DF50B7DF6
:10258000BDE8F08F40000020E4ED826D3689EC3F1D
:102590002DB29DEFA77A674000007A443C53256333
:1025A000253033642C2563253034643E0D0A000049
:1025B000004800400038014038B504460020009033
:1025C000A078303864214843E178303901EB81014B
:1025D00000EB410120793038084400B2ADF800002A
:1025E0006078412802D1BDF9000002E0BDF9000089
:1025F000404200B2ADF80000A07930386421484371
:10260000E179303901EB810100EB4101207A30386A
:10261000084400B2ADF802006079412802D1BDF94A
:10262000020002E0BDF90200404200B2ADF8020033
:10263000BDF902301A46BDF900100846FEF7D0FD7C
:1026400038BD0000F0B585B004460D4616461F465D
:102650003C208DF800004D208DF80100002C01DD9C
:10266000412000E042208DF80200002C01DB2046D2
:1026700000E0604204B2642094FBF0F00A2190FB79
:10268000F1F201FB12003030C0B28DF803000A20D5
:1026900094FBF0F090FBF1F201FB12003030C0B27D
:1026A0008DF804000A2094FBF0F100FB114030305B
:1026B000C0B28DF80500002D01DD412000E0422070
:1026C0008DF80600002D01DB284600E0684205B2C7
:1026D000642095FBF0F00A2190FBF1F201FB12005F
:1026E0003030C0B28DF807000A2095FBF0F090FB67
:1026F000F1F201FB12003030C0B28DF808000A2060
:1027000095FBF0F100FB11503030C0B28DF809009C
:10271000002E01DD412000E042208DF80A00002E4D
:1027200001DB304600E0704206B2642096FBF0F018
:102730000A2190FBF1F201FB12003030C0B28DF89B
:102740000B000A2096FBF0F090FBF1F201FB120067
:102750003030C0B28DF80C000A2096FBF0F100FB7F
:1027600011603030C0B28DF80D00002F01DD412026
:1027700000E042208DF80E00002F01DB384600E01B
:10278000784207B2642097FBF0F00A2190FBF1F247
:1027900001FB12003030C0B28DF80F000A2097FB09
:1027A000F0F090FBF1F201FB12003030C0B28DF876
:1027B00010000A2097FBF0F100FB11703030C0B21E
:1027C0008DF811003E208DF8120000208DF81300C6
:1027D00069460248FFF7C4FC05B0F0BD0044004064
:1027E00010B54FF47A60FFF70BFD02A0FEF716FD5F
:1027F00010BD0000453A5C6D61696C6B6964615C99
:102800003036206D736731352E6D70330000000057
:102810002DE9FC5F3048008800B2ADF800000020D0
:102820002D4908802D48008800B2ADF80200002034
:102830002A4908802A48008800B2ADF80400002028
:10284000274908800807808C00B2ADF806000020F8
:1028500009078884824639E04FF0000B3DF91A00E1
:1028600047F2305190FBF1F201FB1209484600F0AB
:1028700043FE804600F074FC06460022194B00F02F
:1028800017F9044600F03AF88346584600F068FC11
:102890000646154A154B00F07BFA044600F02EF868
:1028A0008346584600F05CFC80460022104B00F046
:1028B0006FFA064600220F4B00F06AFA044600F059
:1028C0001DF80D4941F82A000AF1010ABAF1040F76
:1028D000C2DBBDE8FC9F0000242C0140240800401E
:1028E0002404004000006440814EE62E0BEB69405A
:1028F000000024400000D03F4000002021F00042B2
:10290000A2F16052B2F5801F01F0004328BFD2F15E
:102910007F6C0BD95FEA001C43EAC20242EB5070A5
:1029200018BF704728BF20F001007047B2F5801F24
:10293000BCBF184670474FEA410C1CF5001F02D27D
:10294000084600F0ECBE70B500F0CCFA000000893B
:10295000FFF7F6BF4FF00040A0F580007047000081
:1029600010B591EA030F48BF83F0004300F11683CE
:10297000841A71EB030C05D2121943EB0C03001BF4
:1029800061EB0C01DFF824E14FEA1154A4EB135C76
:102990001EEA430F18BF9EEA445F73D023EA0E037A
:1029A000DCF1200E21EA045143F4801332D322FAE1
:1029B0000CFE10EB0E0023FA0CFE41EB0E01CCF1E5
:1029C000200E03FA0EFE10EB0E0051F10001B1F5DE
:1029D000801FCCF1200E32D201EB045112FA0EF21C
:1029E000BDE8104058BF7047401C38BF5FEA420244
:1029F00018BF7047002814BF20F0010041F100010A
:102A00004FEA410313F5001F38BF7047A1F1C041E1
:102A100000F0B6BA012A43EB0302ACF1200CDCF162
:102A20001F0E32BF4FF0000E23FA0CF310EB030021
:102A300041EB0451B4EB115FD0D0A1EB045101F58F
:102A4000801149085FEA300001EB04510ED350F1C8
:102A5000000038BF12FA0EFE08D1BDE81040C9E7E9
:102A6000401C38BF5FEA4202CAD1C3E7BDE810404C
:102A70004FEA410313F5001F38BF7047A1F1C04171
:102A800000F07EBA9EEA445F08D011EA5E0FBDE80E
:102A9000104004BF01F0004100207047BDE8104025
:102AA00070B500F01FFA00BF64FBBE3E0000E0FFFF
:102AB0002DE9C04130B4DFF8A0C23CEA111418BFC0
:102AC0003CEA131400F0EC8081EA03051CEA1114BF
:102AD00044EAD57418BF1CEA131500F0C780A4EBB4
:102AE00005044FF0004545EAC12145EAC32341EA08
:102AF000505143EA525304F17F74994204F5003473
:102B00004FEAC0204FEAC22208BF904200F09C80EA
:102B10004FEA13650FF24016765D4FEA134506FB48
:102B200005F7C7F1807706FB07F74FEAD737A7FB12
:102B300003687642C8F58038A7FB06CE38BFA8F1F7
:102B4000010807FB08E64FF0000EA6FB028CE6FB2F
:102B500003CEDCF1000CCEF1004E38BFAEF1010E19
:102B6000A6FB0C584FF000074FF00005E6FB0E8760
:102B7000A1FB08C6A0FB07CE16EB0E0645F100052B
:102B8000E1FB076515F1E04E7EBFA4F580345FEAF6
:102B900046066D4116F1800745F100054FEA1727FB
:102BA0004FEA066647EA0567A6F1DE46B6F1805FA2
:102BB0004FEA15251FD9384624F0010C05EBC471E6
:102BC000BCF1FE6F01EB0C1102D8F0BCBDE8008136
:102BD00024425CBF01F5801E9EEAC47F02D4F0BC93
:102BE000BDE80081244238D4F0BCA1F1C041BDE869
:102BF000004100F0C5B94FEAD22242EA43524FEAFF
:102C0000D323A7FB02864FEAD02040EA415007FBBE
:102C100003661EEA0E0F4FEAD12105FB026658BF7C
:102C2000A6EB0056B6EB00564FEA520E4EEAC37EB4
:102C300018EB0E0E56EB530EBDD518EB02085E4195
:102C40007F1C55F10005B6E74FF480154FF00007E3
:102C50004FF000064FF00008ADE7F0BC4FF0000069
:102C600001F1C04101F00041BDE8008111EA0C1FF3
:102C70000CEA131500D00CE013EA0C1F00F02580BD
:102C80004FF00000F0BC81EA030101F00041BDE813
:102C90000081F0BCBDE8004181EA030100F070B999
:102CA000F0BCBDE8004170B500F01CF9097EFC3EA7
:102CB00000F007B881EA03014FF0000001F0004185
:102CC000704781EA030100F05BB9F0BCBDE8004148
:102CD0004FF0000021497047FFFDFBF9F7F5F4F2D2
:102CE000F0EEEDEBE9E8E6E4E3E1E0DEDDDBDAD8A7
:102CF000D7D5D4D3D1D0CFCDCCCBCAC8C7C6C5C405
:102D0000C2C1C0BFBEBDBCBBBAB9B8B7B6B5B4B31B
:102D1000B2B1B0AFAEADACABAAA9A8A8A7A6A5A406
:102D2000A3A3A2A1A09F9F9E9D9C9C9B9A999998CA
:102D30009797969595949393929191908F8F8E8E6D
:102D40008D8C8C8B8B8A89898888878786858584FA
:102D500084838382828181800000FF070000F87FE6
:102D600010F0004248BF4042B0FA80F310FA03F17D
:102D70000AD0C3F11D0303F580634FEA415002EB13
:102D8000035202EBD12170474FF000007047000062
:102D9000DFF848C170B51CEA111E1EBF1CEA1315EE
:102DA0009EEA0C0F95EA0C0F00F06F8081EA030495
:102DB00023EA4C134EEAD47E21EA4C1141F48011EF
:102DC00043F48013AE44A1FB024CA0FB0365AEF1BB
:102DD0007F7E361955EB0C05A1FB034C4CF100032B
:102DE000A0FB021C16EB0C06654153F100030942DF
:102DF00018BF46F0010613F4007F0BD14FEA0331F0
:102E00004FEA0530340341EA155140EA16506FF09D
:102E100003020AE04FEAC3214FEAC520F40241EA67
:102E2000555140EA56506FF0020202EB2E4201EB80
:102E3000025585EACE710AD05FEA440C18BF24F02F
:102E4000004450F1000041F1000120EAD47040F24A
:102E5000FE7C624500D270BDA84214BF4FF0804492
:102E60004FF04044002E08BF0024BEF1806FA8BF81
:102E7000A1F1C041BDE8704080F282804FF00000B7
:102E800001F1C04101F0004170479EEA0C0F0CEACD
:102E9000131518BF95EA0C0F06D04FF0000081EA19
:102EA000030E0EF0004170BD00F01CF88900013ED9
:102EB00000F007B800F009B84FEA430C5FEA5C5C29
:102EC00008D081EA030100F05BB84FEA410C5FEAE9
:102ED0005C5CF6D14FF00000014970470000FF072D
:102EE0000000F87F0EF1020E2EF0030E5EF8046B68
:102EF000364205D4012A43EB030515F5001F12D80D
:102F0000012841EB010C1CF5001F0CD80ED14FEA33
:102F1000D17C15F5001F0CEB4C0C0CF1020C08BF1A
:102F20004CEBD37C04E04FF0080C01E04FEAD37C7B
:102F30000CEB4C0526FA05F606F00706B6F1040C74
:102F400006D20EEB860CBDE870404CF0010C6047D9
:102F5000DFE80CF0090B02024FF000414FF00000D7
:102F6000A1F5002170BD19461046012851EB01045E
:102F700018BFD4F5001484BF002001F0004170BDDB
:102F80000808A0F500114FEA3101704710B591EA29
:102F9000030F48BF83F000433FF5EAAC841A71EB9E
:102FA000030C07D212198CF0004C43EB0C03001BEE
:102FB00061EB0C01DFF8A4E14FEA1154A4EB135CC0
:102FC0001EEA430F18BF9EEA445F00F0B08023EA78
:102FD0006E03524221EA0451C3EB6E0338BF5B1EFD
:102FE000DCF1200E25D322FA0CFE10EB0E0043FA82
:102FF0000CFE41EB0E01CCF1200E03FA0EFE10EB9D
:103000000E0051F10001CCF1200E29D412FA0EF27B
:1030100001EB0451BDE8104058BF7047401C1CBF75
:10302000B2F1004F704700280CBF491C20F001008E
:10303000704712EB020E43EB030218BF4FF0010E74
:103040004EEA4202ACF1200CDCF11E0E54D943FAD8
:103050000CFE10EB0E0051F1FF31CCF11E0ED5D558
:103060000EF1010E12FA0EFE404141EB010101EB9F
:10307000445C5FEA5C5C10D910EBDE7001EB04513C
:1030800038BFBEF1004FBDE8104018BF70470028A0
:103090000CBF491C20F00100704730D24FEAD42CFD
:1030A00011F5001124F400641BD0B1FA81F20B3A3F
:1030B000A41AA41ED2F12003914030FA03F319435D
:1030C000904001EBCC71002C01EB0451BDE81040A5
:1030D000A8BF704701F1C0414FF0000001F000416E
:1030E0007047B0FA80F310FA03F100D110BDE41A72
:1030F000173C4805C90AE4E701EB045110BD49102B
:1031000001EB0451BDE810404FEA300002E04FF0FF
:10311000000170474A0008BF0042F8D0B2F5001F16
:1031200028BF704701F000414FF0000070479EEA51
:10313000445F07D011EA5E0FBDE8104004BF0021D4
:1031400000207047BDE8104070B5FFF7CBFE00BF10
:1031500040DFF63E83F00041104670470000E0FF7C
:1031600043004FEAD30C4FEA3C0C43401FBF4007DB
:103170000CF1605113F0FE4F70471CF0006F03D14B
:1031800000200CF0004170470CF0004343EA5070FF
:1031900010B540EACC0000F07CFA00BF00000092BD
:1031A0004FEA0001FFF7ECBE4FF000414FF0000086
:1031B000A1F500217047000090EA010F48BF81F09F
:1031C000004100F1F482421A3CBF801A89184FEA8C
:1031D000D0524FF07F4C1CEA410FA2EBD15318BFE5
:1031E0009CEA026F00F03B804FF0004C4CEA00205C
:1031F0004CEA012121FA03FC10EB0C0C1ED202F167
:10320000FF325FEA1C2040EBC25038BF70471CF011
:103210007F0F4FEA400C18BFBCF17F4F38BF70479B
:10322000C3F12003994008BF20F00100BCF17F4F9B
:1032300038BF7047A0F1C04000F071BA4FEA3C00BF
:10324000000A40EBC25028BF1CF0FF0F4FEA400CB1
:10325000E6D018BFBCF17F4F38BF7047EAE79CEA61
:10326000026F05D010EA5C0F08BF00F00040704705
:1032700010B500F00EFA00BF64FBBE3E401058BF10
:10328000C0F14040491058BFC1F140418142EFF3C5
:10329000008070474FF47F0C1CEAD0121EBF1CEA5E
:1032A000D11392EA0C0F93EA0C0F00F0858090EA9C
:1032B000010F48BF42F4807240F4000C41F400005A
:1032C0002CF07F4120F07F4000B58142A2EB030249
:1032D0000FF2081CACEB504EC0F100009EF800E06D
:1032E0004FEA4E0E00FB0EFC38BF49004FEA2C1C83
:1032F00002F5FA020CFB0EF34FEACE1E4FEA112C38
:103300004FEAC1210EEB635E42EB22420EFB0CFC46
:103310004FEA1C5300FB03114FEA112C4FEA013115
:103320000EFB0CFC4FEADC4C00FB0C11C14228BF29
:1033300009184CEB03335DF804EB10EB410143EB50
:10334000C250B2F57C0F38BF704729D512F0F00F8C
:103350001CBF00F1C04000F0004070470081828334
:103360008485868788898B8C8D8E8F919293959694
:1033700097999A9C9D9FA0A2A3A5A7A8AAACAEB01E
:10338000B2B3B5B7B9BCBEC0C2C5C7C9CCCED1D423
:10339000D7D9DCDFE2E6E9ECF0F3F7FAFE00000053
:1033A0004FEA400C0CF1807CBCF17E4F28BF704787
:1033B000B0F1C04000F0B3B990EA010F0CEAD113AC
:1033C00048BF42F48072624538BF634507D213F4A8
:1033D0007F0F16D080EA010000F00040704710B562
:1033E00000F057F9097EFC3E00F005B880EA0100C4
:1033F00000F00040704780EA010000F0004000F05B
:103400008EB912F47F0F04BF0248704780EA0100B2
:1034100000F085B90000C07F50EA010C00F1138074
:103420001CF5000F58BFBCF5000F01D4884270474F
:1034300007D710F5000F58BF11F5000F15D48842BB
:103440007047894270471CF5000F04D5BCF5000F8A
:10345000F7D5814270474FF0807C1CEB400F38BF9E
:103460001CEB410F01D28142704710B500F011F9F9
:10347000922449004FF000504FF08051FFF7FEBEFC
:1034800041000B0ED3F19E0208D950F400034FEA1D
:10349000032323FA02F048BF4042704710B500F002
:1034A000F8F800BF49922480002070476FF0004276
:1034B00082EA200070470000C10DD1F19E0206DBB8
:1034C0004FEA002343F0004323FA02F07047004222
:1034D00007D54FEA4001B1F1FE4F02D24FF0000094
:1034E000704710B500F0D5F849922480002070474D
:1034F0006FEA20007047000010F0004148BF4042D2
:10350000B0FA80F310FA03F2C3F19D030BD051EA35
:10351000C35101EB1220530638BF704700F1010080
:1035200008BF20F00100704750EA010C00F1138041
:103530001CF5000F58BFBCF5000F01D4884270473E
:1035400007D710F5000F58BF11F5000F15D48842AA
:103550007047894270471CF5000F04D5BCF5000F79
:10356000F7D5814270474FF0807C1CEB400F38BF8D
:103570001CEB410F01D28142704710B500F089F871
:10358000922449004FF000504FF08051FFF776BE73
:103590004FF47F0C1CEAD0121EBF1CEAD11392EA32
:1035A0000C0F93EA0C0F00F0478090EA010F48BF20
:1035B00042F480724FF0004C4CEA00204CEA0121AA
:1035C00002EB0302A0FB0113A2F50002002918BFC1
:1035D00043F001035B0028BF4FEA330342EB224272
:1035E0005FEA132C4CEBC2502EBFBCEB436FB2F51D
:1035F0007C0F70474FEA036CBCF1004F08BF20F00E
:103600000100B2F57C0F38BF70470BD582F0FF0286
:1036100012F5803FC8BF704700F1C040D8BF00F02E
:103620000040704700F5000C5FEA4C0C48BF704743
:10363000B0F1C04000F073B890EA010F0CEAD1136A
:1036400048BF42F48072624538BF634504D280EAC5
:10365000010000F00040704710B500F01AF800BFFC
:103660008900013E00F007B800F009B85FEA410C9C
:103670005FEA1C6C08D080EA010000F050B85FEAF5
:10368000400C5FEA1C6CF6D14FF00040A0F58000C2
:1036900070470EF1020E2EF0030E5EF8044B24422A
:1036A00004D44FEA4102B2F17F4F11D84FEA4003F0
:1036B000B3F17F4F0CD80ED14FEAD07CB2F17F4FDF
:1036C0000CEB4C0C0CF1020C08BF4CEBD17C04E071
:1036D0004FF0080C01E04FEAD17C0CEB4C0324FACC
:1036E00003F404F00704B4F1040C06D20EEB840CCE
:1036F000BDE810404CF0010C6047DFE80CF0070813
:1037000002024FF00040A0F5800010BD08464200C4
:1037100018BFD2F1807288BF00F0004010BDFF21B9
:1037200041EAD050C005704751EA000C00F1138007
:103730001CF5000F58BFBCF5000F01D48142704743
:1037400007D711F5000F58BF10F5000F15D48142AF
:103750007047894270471CF5000F04D5BCF5000F77
:10376000F7D5884270474FF0807C1CEB410F38BF83
:103770001CEB400F01D28842704780EA010081EAC9
:10378000000180EA0100FFF7F8BE80F0004090EAF7
:10379000010F7FF518AD81F0004100F008B800007E
:1037A00090EA010F48BF81F000413FF50CAD421A8D
:1037B00004D882F00042A0EB020011444FEAD0523C
:1037C0004FF07F4C1CEA410FA2EBD15318BF9CEA8B
:1037D000026F4AD04FF0004C4CEA00204CEA012125
:1037E00021FA03FCB0EB0C0C0FD412F0FE0F36D014
:1037F0005FEA4C001DD5001240EBC25038BF704745
:103800001CF03F0F18BF70470BE0A2F101025FEA06
:103810001C2040EBC25038BF70471CF07F0F18BF10
:103820007047C3F12003994014BF401E20F00100EF
:10383000704780084FEA122308BF7047B0FA80FC37
:10384000A2EB0C02CCF1280C60FA0CF093EA122FD8
:1038500004BF00EBC25070474FEAC3707047130AB1
:103860005FEADC1008BF7047F6E79CEA026F04D0FD
:1038700010EA5C0F08BF0020704710B5FFF709FF82
:1038800040DFF63E81F00040704700009A991940F1
:103890000000803F0000000004000008000000005D
:1038A000000000020001000010000000CC380008F9
:1038B00000000020300000006C010008FC38000807
:1038C00030000020080800008801000864000000A3
:1038D00000000000000000000000000000000000E8
:1038E00000000000000000000000000001020304CE
:0C38F00001020304060708090204060890
:04000005080001E509
:00000001FF
